{
  "_format": "hh-sol-artifact-1",
  "contractName": "TrafficControl",
  "sourceName": "contracts/TrafficControl.sol",
  "abi": [
    {
      "inputs": [
        {
          "internalType": "address",
          "name": "initialOwner",
          "type": "address"
        }
      ],
      "stateMutability": "nonpayable",
      "type": "constructor"
    },
    {
      "inputs": [
        {
          "internalType": "address",
          "name": "owner",
          "type": "address"
        }
      ],
      "name": "OwnableInvalidOwner",
      "type": "error"
    },
    {
      "inputs": [
        {
          "internalType": "address",
          "name": "account",
          "type": "address"
        }
      ],
      "name": "OwnableUnauthorizedAccount",
      "type": "error"
    },
    {
      "anonymous": false,
      "inputs": [
        {
          "indexed": true,
          "internalType": "address",
          "name": "previousOwner",
          "type": "address"
        },
        {
          "indexed": true,
          "internalType": "address",
          "name": "newOwner",
          "type": "address"
        }
      ],
      "name": "OwnershipTransferred",
      "type": "event"
    },
    {
      "inputs": [],
      "name": "ACCESS_DURATION",
      "outputs": [
        {
          "internalType": "uint256",
          "name": "",
          "type": "uint256"
        }
      ],
      "stateMutability": "view",
      "type": "function"
    },
    {
      "inputs": [
        {
          "internalType": "address",
          "name": "",
          "type": "address"
        }
      ],
      "name": "authorizedCallers",
      "outputs": [
        {
          "internalType": "bool",
          "name": "",
          "type": "bool"
        }
      ],
      "stateMutability": "view",
      "type": "function"
    },
    {
      "inputs": [
        {
          "internalType": "uint256",
          "name": "",
          "type": "uint256"
        }
      ],
      "name": "intersections",
      "outputs": [
        {
          "internalType": "uint256",
          "name": "occupiedByTokenId",
          "type": "uint256"
        },
        {
          "internalType": "uint256",
          "name": "accessExpires",
          "type": "uint256"
        }
      ],
      "stateMutability": "view",
      "type": "function"
    },
    {
      "inputs": [],
      "name": "owner",
      "outputs": [
        {
          "internalType": "address",
          "name": "",
          "type": "address"
        }
      ],
      "stateMutability": "view",
      "type": "function"
    },
    {
      "inputs": [],
      "name": "renounceOwnership",
      "outputs": [],
      "stateMutability": "nonpayable",
      "type": "function"
    },
    {
      "inputs": [
        {
          "internalType": "uint256",
          "name": "_intersectionId",
          "type": "uint256"
        },
        {
          "internalType": "uint256",
          "name": "_tokenId",
          "type": "uint256"
        }
      ],
      "name": "requestIntersectionAccess",
      "outputs": [
        {
          "internalType": "bool",
          "name": "success",
          "type": "bool"
        }
      ],
      "stateMutability": "nonpayable",
      "type": "function"
    },
    {
      "inputs": [
        {
          "internalType": "address",
          "name": "_caller",
          "type": "address"
        },
        {
          "internalType": "bool",
          "name": "_isAuthorized",
          "type": "bool"
        }
      ],
      "name": "setAuthorizedCaller",
      "outputs": [],
      "stateMutability": "nonpayable",
      "type": "function"
    },
    {
      "inputs": [
        {
          "internalType": "address",
          "name": "newOwner",
          "type": "address"
        }
      ],
      "name": "transferOwnership",
      "outputs": [],
      "stateMutability": "nonpayable",
      "type": "function"
    }
  ],
  "bytecode": "0x608060405234801561001057600080fd5b50604051610b53380380610b53833981810160405281019061003291906101e2565b80600073ffffffffffffffffffffffffffffffffffffffff168173ffffffffffffffffffffffffffffffffffffffff16036100a55760006040517f1e4fbdf700000000000000000000000000000000000000000000000000000000815260040161009c919061021e565b60405180910390fd5b6100b4816100bb60201b60201c565b5050610239565b60008060009054906101000a900473ffffffffffffffffffffffffffffffffffffffff169050816000806101000a81548173ffffffffffffffffffffffffffffffffffffffff021916908373ffffffffffffffffffffffffffffffffffffffff1602179055508173ffffffffffffffffffffffffffffffffffffffff168173ffffffffffffffffffffffffffffffffffffffff167f8be0079c531659141344cd1fd0a4f28419497f9722a3daafe3b4186f6b6457e060405160405180910390a35050565b600080fd5b600073ffffffffffffffffffffffffffffffffffffffff82169050919050565b60006101af82610184565b9050919050565b6101bf816101a4565b81146101ca57600080fd5b50565b6000815190506101dc816101b6565b92915050565b6000602082840312156101f8576101f761017f565b5b6000610206848285016101cd565b91505092915050565b610218816101a4565b82525050565b6000602082019050610233600083018461020f565b92915050565b61090b806102486000396000f3fe608060405234801561001057600080fd5b50600436106100885760003560e01c8063715018a61161005b578063715018a6146101285780638da5cb5b14610132578063f2fde38b14610150578063f68378611461016c57610088565b8063454bbd291461008d5780634bd3b6d1146100a9578063536fff6c146100da57806363a0cce61461010a575b600080fd5b6100a760048036038101906100a29190610618565b61019c565b005b6100c360048036038101906100be919061068e565b6101ff565b6040516100d19291906106ca565b60405180910390f35b6100f460048036038101906100ef91906106f3565b610223565b604051610101919061072f565b60405180910390f35b610112610243565b60405161011f919061074a565b60405180910390f35b610130610248565b005b61013a61025c565b6040516101479190610774565b60405180910390f35b61016a600480360381019061016591906106f3565b610285565b005b6101866004803603810190610181919061078f565b61030b565b604051610193919061072f565b60405180910390f35b6101a461042a565b80600260008473ffffffffffffffffffffffffffffffffffffffff1673ffffffffffffffffffffffffffffffffffffffff16815260200190815260200160002060006101000a81548160ff0219169083151502179055505050565b60016020528060005260406000206000915090508060000154908060010154905082565b60026020528060005260406000206000915054906101000a900460ff1681565b600a81565b61025061042a565b61025a60006104b1565b565b60008060009054906101000a900473ffffffffffffffffffffffffffffffffffffffff16905090565b61028d61042a565b600073ffffffffffffffffffffffffffffffffffffffff168173ffffffffffffffffffffffffffffffffffffffff16036102ff5760006040517f1e4fbdf70000000000000000000000000000000000000000000000000000000081526004016102f69190610774565b60405180910390fd5b610308816104b1565b50565b6000600260003373ffffffffffffffffffffffffffffffffffffffff1673ffffffffffffffffffffffffffffffffffffffff16815260200190815260200160002060009054906101000a900460ff16610399576040517f08c379a000000000000000000000000000000000000000000000000000000000815260040161039090610852565b60405180910390fd5b60006001600085815260200190815260200160002090506000816000015414806103c7575080600101544210155b156103f457828160000181905550600a426103e291906108a1565b81600101819055506001915050610424565b82816000015414610409576000915050610424565b600a4261041691906108a1565b816001018190555060019150505b92915050565b610432610575565b73ffffffffffffffffffffffffffffffffffffffff1661045061025c565b73ffffffffffffffffffffffffffffffffffffffff16146104af57610473610575565b6040517f118cdaa70000000000000000000000000000000000000000000000000000000081526004016104a69190610774565b60405180910390fd5b565b60008060009054906101000a900473ffffffffffffffffffffffffffffffffffffffff169050816000806101000a81548173ffffffffffffffffffffffffffffffffffffffff021916908373ffffffffffffffffffffffffffffffffffffffff1602179055508173ffffffffffffffffffffffffffffffffffffffff168173ffffffffffffffffffffffffffffffffffffffff167f8be0079c531659141344cd1fd0a4f28419497f9722a3daafe3b4186f6b6457e060405160405180910390a35050565b600033905090565b600080fd5b600073ffffffffffffffffffffffffffffffffffffffff82169050919050565b60006105ad82610582565b9050919050565b6105bd816105a2565b81146105c857600080fd5b50565b6000813590506105da816105b4565b92915050565b60008115159050919050565b6105f5816105e0565b811461060057600080fd5b50565b600081359050610612816105ec565b92915050565b6000806040838503121561062f5761062e61057d565b5b600061063d858286016105cb565b925050602061064e85828601610603565b9150509250929050565b6000819050919050565b61066b81610658565b811461067657600080fd5b50565b60008135905061068881610662565b92915050565b6000602082840312156106a4576106a361057d565b5b60006106b284828501610679565b91505092915050565b6106c481610658565b82525050565b60006040820190506106df60008301856106bb565b6106ec60208301846106bb565b9392505050565b6000602082840312156107095761070861057d565b5b6000610717848285016105cb565b91505092915050565b610729816105e0565b82525050565b60006020820190506107446000830184610720565b92915050565b600060208201905061075f60008301846106bb565b92915050565b61076e816105a2565b82525050565b60006020820190506107896000830184610765565b92915050565b600080604083850312156107a6576107a561057d565b5b60006107b485828601610679565b92505060206107c585828601610679565b9150509250929050565b600082825260208201905092915050565b7f54726166666963436f6e74726f6c3a2043616c6c6572206973206e6f7420617560008201527f74686f72697a6564000000000000000000000000000000000000000000000000602082015250565b600061083c6028836107cf565b9150610847826107e0565b604082019050919050565b6000602082019050818103600083015261086b8161082f565b9050919050565b7f4e487b7100000000000000000000000000000000000000000000000000000000600052601160045260246000fd5b60006108ac82610658565b91506108b783610658565b92508282019050808211156108cf576108ce610872565b5b9291505056fea264697066735822122032dc416940381a3b85fd404b9cc672290fa62ce090b08240b812802a50c42b4b64736f6c63430008140033",
  "linkReferences": {},
  "deployedLinkReferences": {}
}