{
  "_format": "hh-sol-artifact-1",
  "contractName": "VehicleRegistry",
  "sourceName": "contracts/VehicleRegistry.sol",
  "abi": [
    {
      "inputs": [
        {
          "internalType": "address",
          "name": "initialOwner",
          "type": "address"
        },
        {
          "internalType": "address",
          "name": "trafficControlAddress",
          "type": "address"
        }
      ],
      "stateMutability": "nonpayable",
      "type": "constructor"
    },
    {
      "inputs": [
        {
          "internalType": "address",
          "name": "sender",
          "type": "address"
        },
        {
          "internalType": "uint256",
          "name": "tokenId",
          "type": "uint256"
        },
        {
          "internalType": "address",
          "name": "owner",
          "type": "address"
        }
      ],
      "name": "ERC721IncorrectOwner",
      "type": "error"
    },
    {
      "inputs": [
        {
          "internalType": "address",
          "name": "operator",
          "type": "address"
        },
        {
          "internalType": "uint256",
          "name": "tokenId",
          "type": "uint256"
        }
      ],
      "name": "ERC721InsufficientApproval",
      "type": "error"
    },
    {
      "inputs": [
        {
          "internalType": "address",
          "name": "approver",
          "type": "address"
        }
      ],
      "name": "ERC721InvalidApprover",
      "type": "error"
    },
    {
      "inputs": [
        {
          "internalType": "address",
          "name": "operator",
          "type": "address"
        }
      ],
      "name": "ERC721InvalidOperator",
      "type": "error"
    },
    {
      "inputs": [
        {
          "internalType": "address",
          "name": "owner",
          "type": "address"
        }
      ],
      "name": "ERC721InvalidOwner",
      "type": "error"
    },
    {
      "inputs": [
        {
          "internalType": "address",
          "name": "receiver",
          "type": "address"
        }
      ],
      "name": "ERC721InvalidReceiver",
      "type": "error"
    },
    {
      "inputs": [
        {
          "internalType": "address",
          "name": "sender",
          "type": "address"
        }
      ],
      "name": "ERC721InvalidSender",
      "type": "error"
    },
    {
      "inputs": [
        {
          "internalType": "uint256",
          "name": "tokenId",
          "type": "uint256"
        }
      ],
      "name": "ERC721NonexistentToken",
      "type": "error"
    },
    {
      "inputs": [
        {
          "internalType": "address",
          "name": "owner",
          "type": "address"
        }
      ],
      "name": "OwnableInvalidOwner",
      "type": "error"
    },
    {
      "inputs": [
        {
          "internalType": "address",
          "name": "account",
          "type": "address"
        }
      ],
      "name": "OwnableUnauthorizedAccount",
      "type": "error"
    },
    {
      "anonymous": false,
      "inputs": [
        {
          "indexed": true,
          "internalType": "address",
          "name": "owner",
          "type": "address"
        },
        {
          "indexed": true,
          "internalType": "address",
          "name": "approved",
          "type": "address"
        },
        {
          "indexed": true,
          "internalType": "uint256",
          "name": "tokenId",
          "type": "uint256"
        }
      ],
      "name": "Approval",
      "type": "event"
    },
    {
      "anonymous": false,
      "inputs": [
        {
          "indexed": true,
          "internalType": "address",
          "name": "owner",
          "type": "address"
        },
        {
          "indexed": true,
          "internalType": "address",
          "name": "operator",
          "type": "address"
        },
        {
          "indexed": false,
          "internalType": "bool",
          "name": "approved",
          "type": "bool"
        }
      ],
      "name": "ApprovalForAll",
      "type": "event"
    },
    {
      "anonymous": false,
      "inputs": [
        {
          "indexed": true,
          "internalType": "address",
          "name": "previousOwner",
          "type": "address"
        },
        {
          "indexed": true,
          "internalType": "address",
          "name": "newOwner",
          "type": "address"
        }
      ],
      "name": "OwnershipTransferred",
      "type": "event"
    },
    {
      "anonymous": false,
      "inputs": [
        {
          "indexed": true,
          "internalType": "address",
          "name": "from",
          "type": "address"
        },
        {
          "indexed": true,
          "internalType": "address",
          "name": "to",
          "type": "address"
        },
        {
          "indexed": true,
          "internalType": "uint256",
          "name": "tokenId",
          "type": "uint256"
        }
      ],
      "name": "Transfer",
      "type": "event"
    },
    {
      "inputs": [
        {
          "internalType": "address",
          "name": "to",
          "type": "address"
        },
        {
          "internalType": "uint256",
          "name": "tokenId",
          "type": "uint256"
        }
      ],
      "name": "approve",
      "outputs": [],
      "stateMutability": "nonpayable",
      "type": "function"
    },
    {
      "inputs": [
        {
          "internalType": "address",
          "name": "owner",
          "type": "address"
        }
      ],
      "name": "balanceOf",
      "outputs": [
        {
          "internalType": "uint256",
          "name": "",
          "type": "uint256"
        }
      ],
      "stateMutability": "view",
      "type": "function"
    },
    {
      "inputs": [
        {
          "internalType": "uint256",
          "name": "tokenId",
          "type": "uint256"
        }
      ],
      "name": "getApproved",
      "outputs": [
        {
          "internalType": "address",
          "name": "",
          "type": "address"
        }
      ],
      "stateMutability": "view",
      "type": "function"
    },
    {
      "inputs": [
        {
          "internalType": "uint256",
          "name": "_tokenId",
          "type": "uint256"
        }
      ],
      "name": "getVehicleState",
      "outputs": [
        {
          "components": [
            {
              "internalType": "uint256",
              "name": "tokenId",
              "type": "uint256"
            },
            {
              "internalType": "string",
              "name": "location",
              "type": "string"
            },
            {
              "internalType": "uint256",
              "name": "speed",
              "type": "uint256"
            },
            {
              "internalType": "uint256",
              "name": "lastUpdateTime",
              "type": "uint256"
            },
            {
              "internalType": "enum VehicleRegistry.VehicleStatus",
              "name": "status",
              "type": "uint8"
            }
          ],
          "internalType": "struct VehicleRegistry.Vehicle",
          "name": "",
          "type": "tuple"
        }
      ],
      "stateMutability": "view",
      "type": "function"
    },
    {
      "inputs": [
        {
          "internalType": "address",
          "name": "owner",
          "type": "address"
        },
        {
          "internalType": "address",
          "name": "operator",
          "type": "address"
        }
      ],
      "name": "isApprovedForAll",
      "outputs": [
        {
          "internalType": "bool",
          "name": "",
          "type": "bool"
        }
      ],
      "stateMutability": "view",
      "type": "function"
    },
    {
      "inputs": [],
      "name": "name",
      "outputs": [
        {
          "internalType": "string",
          "name": "",
          "type": "string"
        }
      ],
      "stateMutability": "view",
      "type": "function"
    },
    {
      "inputs": [],
      "name": "owner",
      "outputs": [
        {
          "internalType": "address",
          "name": "",
          "type": "address"
        }
      ],
      "stateMutability": "view",
      "type": "function"
    },
    {
      "inputs": [
        {
          "internalType": "uint256",
          "name": "tokenId",
          "type": "uint256"
        }
      ],
      "name": "ownerOf",
      "outputs": [
        {
          "internalType": "address",
          "name": "",
          "type": "address"
        }
      ],
      "stateMutability": "view",
      "type": "function"
    },
    {
      "inputs": [
        {
          "internalType": "address",
          "name": "_owner",
          "type": "address"
        },
        {
          "internalType": "string",
          "name": "_initialLocation",
          "type": "string"
        }
      ],
      "name": "registerVehicle",
      "outputs": [
        {
          "internalType": "uint256",
          "name": "",
          "type": "uint256"
        }
      ],
      "stateMutability": "nonpayable",
      "type": "function"
    },
    {
      "inputs": [],
      "name": "renounceOwnership",
      "outputs": [],
      "stateMutability": "nonpayable",
      "type": "function"
    },
    {
      "inputs": [
        {
          "internalType": "uint256",
          "name": "_tokenId",
          "type": "uint256"
        },
        {
          "internalType": "uint256",
          "name": "_intersectionId",
          "type": "uint256"
        }
      ],
      "name": "requestToCross",
      "outputs": [],
      "stateMutability": "nonpayable",
      "type": "function"
    },
    {
      "inputs": [
        {
          "internalType": "address",
          "name": "from",
          "type": "address"
        },
        {
          "internalType": "address",
          "name": "to",
          "type": "address"
        },
        {
          "internalType": "uint256",
          "name": "tokenId",
          "type": "uint256"
        }
      ],
      "name": "safeTransferFrom",
      "outputs": [],
      "stateMutability": "nonpayable",
      "type": "function"
    },
    {
      "inputs": [
        {
          "internalType": "address",
          "name": "from",
          "type": "address"
        },
        {
          "internalType": "address",
          "name": "to",
          "type": "address"
        },
        {
          "internalType": "uint256",
          "name": "tokenId",
          "type": "uint256"
        },
        {
          "internalType": "bytes",
          "name": "data",
          "type": "bytes"
        }
      ],
      "name": "safeTransferFrom",
      "outputs": [],
      "stateMutability": "nonpayable",
      "type": "function"
    },
    {
      "inputs": [
        {
          "internalType": "address",
          "name": "operator",
          "type": "address"
        },
        {
          "internalType": "bool",
          "name": "approved",
          "type": "bool"
        }
      ],
      "name": "setApprovalForAll",
      "outputs": [],
      "stateMutability": "nonpayable",
      "type": "function"
    },
    {
      "inputs": [
        {
          "internalType": "bytes4",
          "name": "interfaceId",
          "type": "bytes4"
        }
      ],
      "name": "supportsInterface",
      "outputs": [
        {
          "internalType": "bool",
          "name": "",
          "type": "bool"
        }
      ],
      "stateMutability": "view",
      "type": "function"
    },
    {
      "inputs": [],
      "name": "symbol",
      "outputs": [
        {
          "internalType": "string",
          "name": "",
          "type": "string"
        }
      ],
      "stateMutability": "view",
      "type": "function"
    },
    {
      "inputs": [
        {
          "internalType": "uint256",
          "name": "tokenId",
          "type": "uint256"
        }
      ],
      "name": "tokenURI",
      "outputs": [
        {
          "internalType": "string",
          "name": "",
          "type": "string"
        }
      ],
      "stateMutability": "view",
      "type": "function"
    },
    {
      "inputs": [
        {
          "internalType": "address",
          "name": "from",
          "type": "address"
        },
        {
          "internalType": "address",
          "name": "to",
          "type": "address"
        },
        {
          "internalType": "uint256",
          "name": "tokenId",
          "type": "uint256"
        }
      ],
      "name": "transferFrom",
      "outputs": [],
      "stateMutability": "nonpayable",
      "type": "function"
    },
    {
      "inputs": [
        {
          "internalType": "address",
          "name": "newOwner",
          "type": "address"
        }
      ],
      "name": "transferOwnership",
      "outputs": [],
      "stateMutability": "nonpayable",
      "type": "function"
    },
    {
      "inputs": [
        {
          "internalType": "uint256",
          "name": "_tokenId",
          "type": "uint256"
        },
        {
          "internalType": "string",
          "name": "_newLocation",
          "type": "string"
        },
        {
          "internalType": "uint256",
          "name": "_newSpeed",
          "type": "uint256"
        }
      ],
      "name": "updateVehicleState",
      "outputs": [],
      "stateMutability": "nonpayable",
      "type": "function"
    },
    {
      "inputs": [
        {
          "internalType": "uint256",
          "name": "",
          "type": "uint256"
        }
      ],
      "name": "vehicleStates",
      "outputs": [
        {
          "internalType": "uint256",
          "name": "tokenId",
          "type": "uint256"
        },
        {
          "internalType": "string",
          "name": "location",
          "type": "string"
        },
        {
          "internalType": "uint256",
          "name": "speed",
          "type": "uint256"
        },
        {
          "internalType": "uint256",
          "name": "lastUpdateTime",
          "type": "uint256"
        },
        {
          "internalType": "enum VehicleRegistry.VehicleStatus",
          "name": "status",
          "type": "uint8"
        }
      ],
      "stateMutability": "view",
      "type": "function"
    }
  ],
  "bytecode": "0x60806040523480156200001157600080fd5b50604051620036a6380380620036a68339818101604052810190620000379190620002d2565b816040518060400160405280601281526020017f536f6e696350756c73652056656869636c6500000000000000000000000000008152506040518060400160405280600381526020017f53505600000000000000000000000000000000000000000000000000000000008152508160009081620000b5919062000593565b508060019081620000c7919062000593565b505050600073ffffffffffffffffffffffffffffffffffffffff168173ffffffffffffffffffffffffffffffffffffffff16036200013f5760006040517f1e4fbdf70000000000000000000000000000000000000000000000000000000081526004016200013691906200068b565b60405180910390fd5b6200015081620001a260201b60201c565b50600160078190555080600860006101000a81548173ffffffffffffffffffffffffffffffffffffffff021916908373ffffffffffffffffffffffffffffffffffffffff1602179055505050620006a8565b6000600660009054906101000a900473ffffffffffffffffffffffffffffffffffffffff16905081600660006101000a81548173ffffffffffffffffffffffffffffffffffffffff021916908373ffffffffffffffffffffffffffffffffffffffff1602179055508173ffffffffffffffffffffffffffffffffffffffff168173ffffffffffffffffffffffffffffffffffffffff167f8be0079c531659141344cd1fd0a4f28419497f9722a3daafe3b4186f6b6457e060405160405180910390a35050565b600080fd5b600073ffffffffffffffffffffffffffffffffffffffff82169050919050565b60006200029a826200026d565b9050919050565b620002ac816200028d565b8114620002b857600080fd5b50565b600081519050620002cc81620002a1565b92915050565b60008060408385031215620002ec57620002eb62000268565b5b6000620002fc85828601620002bb565b92505060206200030f85828601620002bb565b9150509250929050565b600081519050919050565b7f4e487b7100000000000000000000000000000000000000000000000000000000600052604160045260246000fd5b7f4e487b7100000000000000000000000000000000000000000000000000000000600052602260045260246000fd5b600060028204905060018216806200039b57607f821691505b602082108103620003b157620003b062000353565b5b50919050565b60008190508160005260206000209050919050565b60006020601f8301049050919050565b600082821b905092915050565b6000600883026200041b7fffffffffffffffffffffffffffffffffffffffffffffffffffffffffffffffff82620003dc565b620004278683620003dc565b95508019841693508086168417925050509392505050565b6000819050919050565b6000819050919050565b6000620004746200046e62000468846200043f565b62000449565b6200043f565b9050919050565b6000819050919050565b620004908362000453565b620004a86200049f826200047b565b848454620003e9565b825550505050565b600090565b620004bf620004b0565b620004cc81848462000485565b505050565b5b81811015620004f457620004e8600082620004b5565b600181019050620004d2565b5050565b601f82111562000543576200050d81620003b7565b6200051884620003cc565b8101602085101562000528578190505b620005406200053785620003cc565b830182620004d1565b50505b505050565b600082821c905092915050565b6000620005686000198460080262000548565b1980831691505092915050565b600062000583838362000555565b9150826002028217905092915050565b6200059e8262000319565b67ffffffffffffffff811115620005ba57620005b962000324565b5b620005c6825462000382565b620005d3828285620004f8565b600060209050601f8311600181146200060b5760008415620005f6578287015190505b62000602858262000575565b86555062000672565b601f1984166200061b86620003b7565b60005b8281101562000645578489015182556001820191506020850194506020810190506200061e565b8683101562000665578489015162000661601f89168262000555565b8355505b6001600288020188555050505b505050505050565b62000685816200028d565b82525050565b6000602082019050620006a260008301846200067a565b92915050565b612fee80620006b86000396000f3fe608060405234801561001057600080fd5b50600436106101375760003560e01c80638da5cb5b116100b8578063b95238511161007c578063b95238511461033c578063c87b56dd1461036c578063cad7df211461039c578063e985e9c5146103b8578063f2fde38b146103e8578063fdf313091461040457610137565b80638da5cb5b1461029457806392a571b3146102b257806395d89b41146102e6578063a22cb46514610304578063b88d4fde1461032057610137565b806342842e0e116100ff57806342842e0e146101f257806359a0b88d1461020e5780636352211e1461022a57806370a082311461025a578063715018a61461028a57610137565b806301ffc9a71461013c57806306fdde031461016c578063081812fc1461018a578063095ea7b3146101ba57806323b872dd146101d6575b600080fd5b61015660048036038101906101519190611f97565b610434565b6040516101639190611fdf565b60405180910390f35b610174610516565b604051610181919061208a565b60405180910390f35b6101a4600480360381019061019f91906120e2565b6105a8565b6040516101b19190612150565b60405180910390f35b6101d460048036038101906101cf9190612197565b6105c4565b005b6101f060048036038101906101eb91906121d7565b6105da565b005b61020c600480360381019061020791906121d7565b6106dc565b005b6102286004803603810190610223919061222a565b6106fc565b005b610244600480360381019061023f91906120e2565b6108a5565b6040516102519190612150565b60405180910390f35b610274600480360381019061026f919061226a565b6108b7565b60405161028191906122a6565b60405180910390f35b610292610971565b005b61029c610985565b6040516102a99190612150565b60405180910390f35b6102cc60048036038101906102c791906120e2565b6109af565b6040516102dd959493929190612338565b60405180910390f35b6102ee610a7a565b6040516102fb919061208a565b60405180910390f35b61031e600480360381019061031991906123be565b610b0c565b005b61033a60048036038101906103359190612533565b610b22565b005b61035660048036038101906103519190612657565b610b47565b60405161036391906122a6565b60405180910390f35b610386600480360381019061038191906120e2565b610c39565b604051610393919061208a565b60405180910390f35b6103b660048036038101906103b191906126b3565b610d20565b005b6103d260048036038101906103cd9190612722565b610e05565b6040516103df9190611fdf565b60405180910390f35b61040260048036038101906103fd919061226a565b610e99565b005b61041e600480360381019061041991906120e2565b610f1f565b60405161042b9190612840565b60405180910390f35b60007f80ac58cd000000000000000000000000000000000000000000000000000000007bffffffffffffffffffffffffffffffffffffffffffffffffffffffff1916827bffffffffffffffffffffffffffffffffffffffffffffffffffffffff191614806104ff57507f5b5e139f000000000000000000000000000000000000000000000000000000007bffffffffffffffffffffffffffffffffffffffffffffffffffffffff1916827bffffffffffffffffffffffffffffffffffffffffffffffffffffffff1916145b8061050f575061050e82611037565b5b9050919050565b60606000805461052590612891565b80601f016020809104026020016040519081016040528092919081815260200182805461055190612891565b801561059e5780601f106105735761010080835404028352916020019161059e565b820191906000526020600020905b81548152906001019060200180831161058157829003601f168201915b5050505050905090565b60006105b3826110a1565b506105bd82611129565b9050919050565b6105d682826105d1611166565b61116e565b5050565b600073ffffffffffffffffffffffffffffffffffffffff168273ffffffffffffffffffffffffffffffffffffffff160361064c5760006040517f64a0ae920000000000000000000000000000000000000000000000000000000081526004016106439190612150565b60405180910390fd5b6000610660838361065b611166565b611180565b90508373ffffffffffffffffffffffffffffffffffffffff168173ffffffffffffffffffffffffffffffffffffffff16146106d6578382826040517f64283d7b0000000000000000000000000000000000000000000000000000000081526004016106cd939291906128c2565b60405180910390fd5b50505050565b6106f783838360405180602001604052806000815250610b22565b505050565b3373ffffffffffffffffffffffffffffffffffffffff1661071c836108a5565b73ffffffffffffffffffffffffffffffffffffffff1614610772576040517f08c379a00000000000000000000000000000000000000000000000000000000081526004016107699061296b565b60405180910390fd5b6000600860009054906101000a900473ffffffffffffffffffffffffffffffffffffffff1673ffffffffffffffffffffffffffffffffffffffff1663f683786183856040518363ffffffff1660e01b81526004016107d192919061298b565b6020604051808303816000875af11580156107f0573d6000803e3d6000fd5b505050506040513d601f19601f8201168201806040525081019061081491906129c9565b905080156108605760026009600085815260200190815260200160002060040160006101000a81548160ff02191690836002811115610856576108556122c1565b5b02179055506108a0565b60016009600085815260200190815260200160002060040160006101000a81548160ff0219169083600281111561089a576108996122c1565b5b02179055505b505050565b60006108b0826110a1565b9050919050565b60008073ffffffffffffffffffffffffffffffffffffffff168273ffffffffffffffffffffffffffffffffffffffff160361092a5760006040517f89c62b640000000000000000000000000000000000000000000000000000000081526004016109219190612150565b60405180910390fd5b600360008373ffffffffffffffffffffffffffffffffffffffff1673ffffffffffffffffffffffffffffffffffffffff168152602001908152602001600020549050919050565b61097961139a565b6109836000611421565b565b6000600660009054906101000a900473ffffffffffffffffffffffffffffffffffffffff16905090565b60096020528060005260406000206000915090508060000154908060010180546109d890612891565b80601f0160208091040260200160405190810160405280929190818152602001828054610a0490612891565b8015610a515780601f10610a2657610100808354040283529160200191610a51565b820191906000526020600020905b815481529060010190602001808311610a3457829003601f168201915b5050505050908060020154908060030154908060040160009054906101000a900460ff16905085565b606060018054610a8990612891565b80601f0160208091040260200160405190810160405280929190818152602001828054610ab590612891565b8015610b025780601f10610ad757610100808354040283529160200191610b02565b820191906000526020600020905b815481529060010190602001808311610ae557829003601f168201915b5050505050905090565b610b1e610b17611166565b83836114e7565b5050565b610b2d8484846105da565b610b41610b38611166565b85858585611656565b50505050565b6000610b5161139a565b6000600754905060076000815480929190610b6b90612a25565b9190505550610b7a8482611807565b6040518060a001604052808281526020018481526020016000815260200142815260200160006002811115610bb257610bb16122c1565b5b81525060096000838152602001908152602001600020600082015181600001556020820151816001019081610be79190612c19565b50604082015181600201556060820151816003015560808201518160040160006101000a81548160ff02191690836002811115610c2757610c266122c1565b5b02179055509050508091505092915050565b6060600073ffffffffffffffffffffffffffffffffffffffff16610c5c836108a5565b73ffffffffffffffffffffffffffffffffffffffff1603610cb2576040517f08c379a0000000000000000000000000000000000000000000000000000000008152600401610ca990612d5d565b60405180910390fd5b6000604051806060016040528060348152602001612f856034913990506000815111610ced5760405180602001604052806000815250610d18565b80610cf784611825565b604051602001610d08929190612db9565b6040516020818303038152906040525b915050919050565b600073ffffffffffffffffffffffffffffffffffffffff16610d41846108a5565b73ffffffffffffffffffffffffffffffffffffffff1603610d97576040517f08c379a0000000000000000000000000000000000000000000000000000000008152600401610d8e90612e29565b60405180910390fd5b600060096000858152602001908152602001600020905082816001019081610dbf9190612c19565b5081816002018190555042816003018190555060008160040160006101000a81548160ff02191690836002811115610dfa57610df96122c1565b5b021790555050505050565b6000600560008473ffffffffffffffffffffffffffffffffffffffff1673ffffffffffffffffffffffffffffffffffffffff16815260200190815260200160002060008373ffffffffffffffffffffffffffffffffffffffff1673ffffffffffffffffffffffffffffffffffffffff16815260200190815260200160002060009054906101000a900460ff16905092915050565b610ea161139a565b600073ffffffffffffffffffffffffffffffffffffffff168173ffffffffffffffffffffffffffffffffffffffff1603610f135760006040517f1e4fbdf7000000000000000000000000000000000000000000000000000000008152600401610f0a9190612150565b60405180910390fd5b610f1c81611421565b50565b610f27611eea565b600960008381526020019081526020016000206040518060a001604052908160008201548152602001600182018054610f5f90612891565b80601f0160208091040260200160405190810160405280929190818152602001828054610f8b90612891565b8015610fd85780601f10610fad57610100808354040283529160200191610fd8565b820191906000526020600020905b815481529060010190602001808311610fbb57829003601f168201915b5050505050815260200160028201548152602001600382015481526020016004820160009054906101000a900460ff16600281111561101a576110196122c1565b5b600281111561102c5761102b6122c1565b5b815250509050919050565b60007f01ffc9a7000000000000000000000000000000000000000000000000000000007bffffffffffffffffffffffffffffffffffffffffffffffffffffffff1916827bffffffffffffffffffffffffffffffffffffffffffffffffffffffff1916149050919050565b6000806110ad836118f3565b9050600073ffffffffffffffffffffffffffffffffffffffff168173ffffffffffffffffffffffffffffffffffffffff160361112057826040517f7e27328900000000000000000000000000000000000000000000000000000000815260040161111791906122a6565b60405180910390fd5b80915050919050565b60006004600083815260200190815260200160002060009054906101000a900473ffffffffffffffffffffffffffffffffffffffff169050919050565b600033905090565b61117b8383836001611930565b505050565b60008061118c846118f3565b9050600073ffffffffffffffffffffffffffffffffffffffff168373ffffffffffffffffffffffffffffffffffffffff16146111ce576111cd818486611af5565b5b600073ffffffffffffffffffffffffffffffffffffffff168173ffffffffffffffffffffffffffffffffffffffff161461125f57611210600085600080611930565b6001600360008373ffffffffffffffffffffffffffffffffffffffff1673ffffffffffffffffffffffffffffffffffffffff168152602001908152602001600020600082825403925050819055505b600073ffffffffffffffffffffffffffffffffffffffff168573ffffffffffffffffffffffffffffffffffffffff16146112e2576001600360008773ffffffffffffffffffffffffffffffffffffffff1673ffffffffffffffffffffffffffffffffffffffff168152602001908152602001600020600082825401925050819055505b846002600086815260200190815260200160002060006101000a81548173ffffffffffffffffffffffffffffffffffffffff021916908373ffffffffffffffffffffffffffffffffffffffff160217905550838573ffffffffffffffffffffffffffffffffffffffff168273ffffffffffffffffffffffffffffffffffffffff167fddf252ad1be2c89b69c2b068fc378daa952ba7f163c4a11628f55a4df523b3ef60405160405180910390a4809150509392505050565b6113a2611166565b73ffffffffffffffffffffffffffffffffffffffff166113c0610985565b73ffffffffffffffffffffffffffffffffffffffff161461141f576113e3611166565b6040517f118cdaa70000000000000000000000000000000000000000000000000000000081526004016114169190612150565b60405180910390fd5b565b6000600660009054906101000a900473ffffffffffffffffffffffffffffffffffffffff16905081600660006101000a81548173ffffffffffffffffffffffffffffffffffffffff021916908373ffffffffffffffffffffffffffffffffffffffff1602179055508173ffffffffffffffffffffffffffffffffffffffff168173ffffffffffffffffffffffffffffffffffffffff167f8be0079c531659141344cd1fd0a4f28419497f9722a3daafe3b4186f6b6457e060405160405180910390a35050565b600073ffffffffffffffffffffffffffffffffffffffff168273ffffffffffffffffffffffffffffffffffffffff160361155857816040517f5b08ba1800000000000000000000000000000000000000000000000000000000815260040161154f9190612150565b60405180910390fd5b80600560008573ffffffffffffffffffffffffffffffffffffffff1673ffffffffffffffffffffffffffffffffffffffff16815260200190815260200160002060008473ffffffffffffffffffffffffffffffffffffffff1673ffffffffffffffffffffffffffffffffffffffff16815260200190815260200160002060006101000a81548160ff0219169083151502179055508173ffffffffffffffffffffffffffffffffffffffff168373ffffffffffffffffffffffffffffffffffffffff167f17307eab39ab6107e8899845ad3d59bd9653f200f220920489ca2b5937696c31836040516116499190611fdf565b60405180910390a3505050565b60008373ffffffffffffffffffffffffffffffffffffffff163b1115611800578273ffffffffffffffffffffffffffffffffffffffff1663150b7a02868685856040518563ffffffff1660e01b81526004016116b59493929190612e9e565b6020604051808303816000875af19250505080156116f157506040513d601f19601f820116820180604052508101906116ee9190612eff565b60015b611775573d8060008114611721576040519150601f19603f3d011682016040523d82523d6000602084013e611726565b606091505b50600081510361176d57836040517f64a0ae920000000000000000000000000000000000000000000000000000000081526004016117649190612150565b60405180910390fd5b805160208201fd5b63150b7a0260e01b7bffffffffffffffffffffffffffffffffffffffffffffffffffffffff1916817bffffffffffffffffffffffffffffffffffffffffffffffffffffffff1916146117fe57836040517f64a0ae920000000000000000000000000000000000000000000000000000000081526004016117f59190612150565b60405180910390fd5b505b5050505050565b611821828260405180602001604052806000815250611bb9565b5050565b60606000600161183484611bdd565b01905060008167ffffffffffffffff81111561185357611852612408565b5b6040519080825280601f01601f1916602001820160405280156118855781602001600182028036833780820191505090505b509050600082602083010190505b6001156118e8578080600190039150507f3031323334353637383961626364656600000000000000000000000000000000600a86061a8153600a85816118dc576118db612f2c565b5b04945060008503611893575b819350505050919050565b60006002600083815260200190815260200160002060009054906101000a900473ffffffffffffffffffffffffffffffffffffffff169050919050565b80806119695750600073ffffffffffffffffffffffffffffffffffffffff168273ffffffffffffffffffffffffffffffffffffffff1614155b15611a9d576000611979846110a1565b9050600073ffffffffffffffffffffffffffffffffffffffff168373ffffffffffffffffffffffffffffffffffffffff16141580156119e457508273ffffffffffffffffffffffffffffffffffffffff168173ffffffffffffffffffffffffffffffffffffffff1614155b80156119f757506119f58184610e05565b155b15611a3957826040517fa9fbf51f000000000000000000000000000000000000000000000000000000008152600401611a309190612150565b60405180910390fd5b8115611a9b57838573ffffffffffffffffffffffffffffffffffffffff168273ffffffffffffffffffffffffffffffffffffffff167f8c5be1e5ebec7d5bd14f71427d1e84f3dd0314c0f7b2291e5b200ac8c7c3b92560405160405180910390a45b505b836004600085815260200190815260200160002060006101000a81548173ffffffffffffffffffffffffffffffffffffffff021916908373ffffffffffffffffffffffffffffffffffffffff16021790555050505050565b611b00838383611d30565b611bb457600073ffffffffffffffffffffffffffffffffffffffff168373ffffffffffffffffffffffffffffffffffffffff1603611b7557806040517f7e273289000000000000000000000000000000000000000000000000000000008152600401611b6c91906122a6565b60405180910390fd5b81816040517f177e802f000000000000000000000000000000000000000000000000000000008152600401611bab929190612f5b565b60405180910390fd5b505050565b611bc38383611df1565b611bd8611bce611166565b6000858585611656565b505050565b600080600090507a184f03e93ff9f4daa797ed6e38ed64bf6a1f0100000000000000008310611c3b577a184f03e93ff9f4daa797ed6e38ed64bf6a1f0100000000000000008381611c3157611c30612f2c565b5b0492506040810190505b6d04ee2d6d415b85acef81000000008310611c78576d04ee2d6d415b85acef81000000008381611c6e57611c6d612f2c565b5b0492506020810190505b662386f26fc100008310611ca757662386f26fc100008381611c9d57611c9c612f2c565b5b0492506010810190505b6305f5e1008310611cd0576305f5e1008381611cc657611cc5612f2c565b5b0492506008810190505b6127108310611cf5576127108381611ceb57611cea612f2c565b5b0492506004810190505b60648310611d185760648381611d0e57611d0d612f2c565b5b0492506002810190505b600a8310611d27576001810190505b80915050919050565b60008073ffffffffffffffffffffffffffffffffffffffff168373ffffffffffffffffffffffffffffffffffffffff1614158015611de857508273ffffffffffffffffffffffffffffffffffffffff168473ffffffffffffffffffffffffffffffffffffffff161480611da95750611da88484610e05565b5b80611de757508273ffffffffffffffffffffffffffffffffffffffff16611dcf83611129565b73ffffffffffffffffffffffffffffffffffffffff16145b5b90509392505050565b600073ffffffffffffffffffffffffffffffffffffffff168273ffffffffffffffffffffffffffffffffffffffff1603611e635760006040517f64a0ae92000000000000000000000000000000000000000000000000000000008152600401611e5a9190612150565b60405180910390fd5b6000611e7183836000611180565b9050600073ffffffffffffffffffffffffffffffffffffffff168173ffffffffffffffffffffffffffffffffffffffff1614611ee55760006040517f73c6ac6e000000000000000000000000000000000000000000000000000000008152600401611edc9190612150565b60405180910390fd5b505050565b6040518060a001604052806000815260200160608152602001600081526020016000815260200160006002811115611f2557611f246122c1565b5b81525090565b6000604051905090565b600080fd5b600080fd5b60007fffffffff0000000000000000000000000000000000000000000000000000000082169050919050565b611f7481611f3f565b8114611f7f57600080fd5b50565b600081359050611f9181611f6b565b92915050565b600060208284031215611fad57611fac611f35565b5b6000611fbb84828501611f82565b91505092915050565b60008115159050919050565b611fd981611fc4565b82525050565b6000602082019050611ff46000830184611fd0565b92915050565b600081519050919050565b600082825260208201905092915050565b60005b83811015612034578082015181840152602081019050612019565b60008484015250505050565b6000601f19601f8301169050919050565b600061205c82611ffa565b6120668185612005565b9350612076818560208601612016565b61207f81612040565b840191505092915050565b600060208201905081810360008301526120a48184612051565b905092915050565b6000819050919050565b6120bf816120ac565b81146120ca57600080fd5b50565b6000813590506120dc816120b6565b92915050565b6000602082840312156120f8576120f7611f35565b5b6000612106848285016120cd565b91505092915050565b600073ffffffffffffffffffffffffffffffffffffffff82169050919050565b600061213a8261210f565b9050919050565b61214a8161212f565b82525050565b60006020820190506121656000830184612141565b92915050565b6121748161212f565b811461217f57600080fd5b50565b6000813590506121918161216b565b92915050565b600080604083850312156121ae576121ad611f35565b5b60006121bc85828601612182565b92505060206121cd858286016120cd565b9150509250929050565b6000806000606084860312156121f0576121ef611f35565b5b60006121fe86828701612182565b935050602061220f86828701612182565b9250506040612220868287016120cd565b9150509250925092565b6000806040838503121561224157612240611f35565b5b600061224f858286016120cd565b9250506020612260858286016120cd565b9150509250929050565b6000602082840312156122805761227f611f35565b5b600061228e84828501612182565b91505092915050565b6122a0816120ac565b82525050565b60006020820190506122bb6000830184612297565b92915050565b7f4e487b7100000000000000000000000000000000000000000000000000000000600052602160045260246000fd5b60038110612301576123006122c1565b5b50565b6000819050612312826122f0565b919050565b600061232282612304565b9050919050565b61233281612317565b82525050565b600060a08201905061234d6000830188612297565b818103602083015261235f8187612051565b905061236e6040830186612297565b61237b6060830185612297565b6123886080830184612329565b9695505050505050565b61239b81611fc4565b81146123a657600080fd5b50565b6000813590506123b881612392565b92915050565b600080604083850312156123d5576123d4611f35565b5b60006123e385828601612182565b92505060206123f4858286016123a9565b9150509250929050565b600080fd5b600080fd5b7f4e487b7100000000000000000000000000000000000000000000000000000000600052604160045260246000fd5b61244082612040565b810181811067ffffffffffffffff8211171561245f5761245e612408565b5b80604052505050565b6000612472611f2b565b905061247e8282612437565b919050565b600067ffffffffffffffff82111561249e5761249d612408565b5b6124a782612040565b9050602081019050919050565b82818337600083830152505050565b60006124d66124d184612483565b612468565b9050828152602081018484840111156124f2576124f1612403565b5b6124fd8482856124b4565b509392505050565b600082601f83011261251a576125196123fe565b5b813561252a8482602086016124c3565b91505092915050565b6000806000806080858703121561254d5761254c611f35565b5b600061255b87828801612182565b945050602061256c87828801612182565b935050604061257d878288016120cd565b925050606085013567ffffffffffffffff81111561259e5761259d611f3a565b5b6125aa87828801612505565b91505092959194509250565b600067ffffffffffffffff8211156125d1576125d0612408565b5b6125da82612040565b9050602081019050919050565b60006125fa6125f5846125b6565b612468565b90508281526020810184848401111561261657612615612403565b5b6126218482856124b4565b509392505050565b600082601f83011261263e5761263d6123fe565b5b813561264e8482602086016125e7565b91505092915050565b6000806040838503121561266e5761266d611f35565b5b600061267c85828601612182565b925050602083013567ffffffffffffffff81111561269d5761269c611f3a565b5b6126a985828601612629565b9150509250929050565b6000806000606084860312156126cc576126cb611f35565b5b60006126da868287016120cd565b935050602084013567ffffffffffffffff8111156126fb576126fa611f3a565b5b61270786828701612629565b9250506040612718868287016120cd565b9150509250925092565b6000806040838503121561273957612738611f35565b5b600061274785828601612182565b925050602061275885828601612182565b9150509250929050565b61276b816120ac565b82525050565b600082825260208201905092915050565b600061278d82611ffa565b6127978185612771565b93506127a7818560208601612016565b6127b081612040565b840191505092915050565b6127c481612317565b82525050565b600060a0830160008301516127e26000860182612762565b50602083015184820360208601526127fa8282612782565b915050604083015161280f6040860182612762565b5060608301516128226060860182612762565b50608083015161283560808601826127bb565b508091505092915050565b6000602082019050818103600083015261285a81846127ca565b905092915050565b7f4e487b7100000000000000000000000000000000000000000000000000000000600052602260045260246000fd5b600060028204905060018216806128a957607f821691505b6020821081036128bc576128bb612862565b5b50919050565b60006060820190506128d76000830186612141565b6128e46020830185612297565b6128f16040830184612141565b949350505050565b7f43616c6c6572206973206e6f7420746865206f776e6572206f6620746869732060008201527f76656869636c6500000000000000000000000000000000000000000000000000602082015250565b6000612955602783612005565b9150612960826128f9565b604082019050919050565b6000602082019050818103600083015261298481612948565b9050919050565b60006040820190506129a06000830185612297565b6129ad6020830184612297565b9392505050565b6000815190506129c381612392565b92915050565b6000602082840312156129df576129de611f35565b5b60006129ed848285016129b4565b91505092915050565b7f4e487b7100000000000000000000000000000000000000000000000000000000600052601160045260246000fd5b6000612a30826120ac565b91507fffffffffffffffffffffffffffffffffffffffffffffffffffffffffffffffff8203612a6257612a616129f6565b5b600182019050919050565b60008190508160005260206000209050919050565b60006020601f8301049050919050565b600082821b905092915050565b600060088302612acf7fffffffffffffffffffffffffffffffffffffffffffffffffffffffffffffffff82612a92565b612ad98683612a92565b95508019841693508086168417925050509392505050565b6000819050919050565b6000612b16612b11612b0c846120ac565b612af1565b6120ac565b9050919050565b6000819050919050565b612b3083612afb565b612b44612b3c82612b1d565b848454612a9f565b825550505050565b600090565b612b59612b4c565b612b64818484612b27565b505050565b5b81811015612b8857612b7d600082612b51565b600181019050612b6a565b5050565b601f821115612bcd57612b9e81612a6d565b612ba784612a82565b81016020851015612bb6578190505b612bca612bc285612a82565b830182612b69565b50505b505050565b600082821c905092915050565b6000612bf060001984600802612bd2565b1980831691505092915050565b6000612c098383612bdf565b9150826002028217905092915050565b612c2282611ffa565b67ffffffffffffffff811115612c3b57612c3a612408565b5b612c458254612891565b612c50828285612b8c565b600060209050601f831160018114612c835760008415612c71578287015190505b612c7b8582612bfd565b865550612ce3565b601f198416612c9186612a6d565b60005b82811015612cb957848901518255600182019150602085019450602081019050612c94565b86831015612cd65784890151612cd2601f891682612bdf565b8355505b6001600288020188555050505b505050505050565b7f4552433732314d657461646174613a2055524920717565727920666f72206e6f60008201527f6e6578697374656e7420746f6b656e0000000000000000000000000000000000602082015250565b6000612d47602f83612005565b9150612d5282612ceb565b604082019050919050565b60006020820190508181036000830152612d7681612d3a565b9050919050565b600081905092915050565b6000612d9382611ffa565b612d9d8185612d7d565b9350612dad818560208601612016565b80840191505092915050565b6000612dc58285612d88565b9150612dd18284612d88565b91508190509392505050565b7f56656869636c6520646f6573206e6f742065786973742e000000000000000000600082015250565b6000612e13601783612005565b9150612e1e82612ddd565b602082019050919050565b60006020820190508181036000830152612e4281612e06565b9050919050565b600081519050919050565b600082825260208201905092915050565b6000612e7082612e49565b612e7a8185612e54565b9350612e8a818560208601612016565b612e9381612040565b840191505092915050565b6000608082019050612eb36000830187612141565b612ec06020830186612141565b612ecd6040830185612297565b8181036060830152612edf8184612e65565b905095945050505050565b600081519050612ef981611f6b565b92915050565b600060208284031215612f1557612f14611f35565b5b6000612f2384828501612eea565b91505092915050565b7f4e487b7100000000000000000000000000000000000000000000000000000000600052601260045260246000fd5b6000604082019050612f706000830185612141565b612f7d6020830184612297565b939250505056fe68747470733a2f2f736f6e696370756c73652d6d657461646174612e76657263656c2e6170702f6170692f6d657461646174612fa26469706673582212207c1aa5e0fd06e3f95e20cec1c0baf8580c442b36c969996ac73945d5d997d02764736f6c63430008140033",
  "linkReferences": {},
  "deployedLinkReferences": {}
}